{
  "contractName": "PurchaseProducts",
  "abi": [
    {
      "anonymous": false,
      "inputs": [
        {
          "indexed": true,
          "internalType": "address",
          "name": "previousOwner",
          "type": "address"
        },
        {
          "indexed": true,
          "internalType": "address",
          "name": "newOwner",
          "type": "address"
        }
      ],
      "name": "OwnershipTransferred",
      "type": "event"
    },
    {
      "inputs": [],
      "name": "owner",
      "outputs": [
        {
          "internalType": "address",
          "name": "",
          "type": "address"
        }
      ],
      "stateMutability": "view",
      "type": "function",
      "constant": true
    },
    {
      "inputs": [],
      "name": "renounceOwnership",
      "outputs": [],
      "stateMutability": "nonpayable",
      "type": "function"
    },
    {
      "inputs": [
        {
          "internalType": "address",
          "name": "newOwner",
          "type": "address"
        }
      ],
      "name": "transferOwnership",
      "outputs": [],
      "stateMutability": "nonpayable",
      "type": "function"
    },
    {
      "inputs": [
        {
          "internalType": "string",
          "name": "_content",
          "type": "string"
        }
      ],
      "name": "makePurchase",
      "outputs": [],
      "stateMutability": "payable",
      "type": "function",
      "payable": true
    },
    {
      "inputs": [
        {
          "internalType": "address",
          "name": "_addr",
          "type": "address"
        }
      ],
      "name": "getOrders",
      "outputs": [
        {
          "components": [
            {
              "internalType": "uint256",
              "name": "id",
              "type": "uint256"
            },
            {
              "internalType": "uint256",
              "name": "purchaseDate",
              "type": "uint256"
            },
            {
              "internalType": "string",
              "name": "content",
              "type": "string"
            },
            {
              "internalType": "address",
              "name": "owner",
              "type": "address"
            },
            {
              "internalType": "uint256",
              "name": "eth",
              "type": "uint256"
            },
            {
              "internalType": "bool",
              "name": "isShipped",
              "type": "bool"
            }
          ],
          "internalType": "struct PurchaseProducts.Purchase[]",
          "name": "",
          "type": "tuple[]"
        }
      ],
      "stateMutability": "view",
      "type": "function",
      "constant": true
    },
    {
      "inputs": [],
      "name": "withdraw",
      "outputs": [],
      "stateMutability": "nonpayable",
      "type": "function"
    },
    {
      "inputs": [],
      "name": "contractBalance",
      "outputs": [
        {
          "internalType": "uint256",
          "name": "",
          "type": "uint256"
        }
      ],
      "stateMutability": "view",
      "type": "function",
      "constant": true
    },
    {
      "inputs": [
        {
          "internalType": "address",
          "name": "_addr",
          "type": "address"
        },
        {
          "internalType": "uint256",
          "name": "_index",
          "type": "uint256"
        }
      ],
      "name": "shipOrder",
      "outputs": [],
      "stateMutability": "nonpayable",
      "type": "function"
    }
  ],
  "bytecode": "0x608060405260006100146100b760201b60201c565b9050806000806101000a81548173ffffffffffffffffffffffffffffffffffffffff021916908373ffffffffffffffffffffffffffffffffffffffff1602179055508073ffffffffffffffffffffffffffffffffffffffff16600073ffffffffffffffffffffffffffffffffffffffff167f8be0079c531659141344cd1fd0a4f28419497f9722a3daafe3b4186f6b6457e060405160405180910390a3506100bf565b600033905090565b61119e806100ce6000396000f3fe60806040526004361061007b5760003560e01c80638b7afe2e1161004e5780638b7afe2e146101075780638da5cb5b14610132578063a7f60b0c1461015d578063f2fde38b146101865761007b565b8063093376fe146100805780632b9c305b146100bd5780633ccfd60b146100d9578063715018a6146100f0575b600080fd5b34801561008c57600080fd5b506100a760048036036100a29190810190610cca565b6101af565b6040516100b49190610fcb565b60405180910390f35b6100d760048036036100d29190810190610d2f565b61037e565b005b3480156100e557600080fd5b506100ee610646565b005b3480156100fc57600080fd5b50610105610718565b005b34801561011357600080fd5b5061011c610853565b604051610129919061102d565b60405180910390f35b34801561013e57600080fd5b5061014761085b565b6040516101549190610fb0565b60405180910390f35b34801561016957600080fd5b50610184600480360361017f9190810190610cf3565b610884565b005b34801561019257600080fd5b506101ad60048036036101a89190810190610cca565b610978565b005b6060600760008373ffffffffffffffffffffffffffffffffffffffff1673ffffffffffffffffffffffffffffffffffffffff168152602001908152602001600020805480602002602001604051908101604052809291908181526020016000905b8282101561037357838290600052602060002090600602016040518060c00160405290816000820154815260200160018201548152602001600282018054600181600116156101000203166002900480601f0160208091040260200160405190810160405280929190818152602001828054600181600116156101000203166002900480156102e05780601f106102b5576101008083540402835291602001916102e0565b820191906000526020600020905b8154815290600101906020018083116102c357829003601f168201915b505050505081526020016003820160009054906101000a900473ffffffffffffffffffffffffffffffffffffffff1673ffffffffffffffffffffffffffffffffffffffff1673ffffffffffffffffffffffffffffffffffffffff168152602001600482015481526020016005820160009054906101000a900460ff16151515158152505081526020019060010190610210565b505050509050919050565b6040518060c00160405280600860003373ffffffffffffffffffffffffffffffffffffffff1673ffffffffffffffffffffffffffffffffffffffff168152602001908152602001600020600081548092919060010191905055815260200142815260200183838080601f016020809104026020016040519081016040528093929190818152602001838380828437600081840152601f19601f8201169050808301925050505050505081526020013373ffffffffffffffffffffffffffffffffffffffff16815260200134815260200160001515815250600160008201518160000155602082015181600101556040820151816002019080519060200190610487929190610b2a565b5060608201518160030160006101000a81548173ffffffffffffffffffffffffffffffffffffffff021916908373ffffffffffffffffffffffffffffffffffffffff1602179055506080820151816004015560a08201518160050160006101000a81548160ff021916908315150217905550905050600760003373ffffffffffffffffffffffffffffffffffffffff1673ffffffffffffffffffffffffffffffffffffffff168152602001908152602001600020600190806001815401808255809150506001900390600052602060002090600602016000909190919091506000820154816000015560018201548160010155600282018160020190805460018160011615610100020316600290046105a1929190610baa565b506003820160009054906101000a900473ffffffffffffffffffffffffffffffffffffffff168160030160006101000a81548173ffffffffffffffffffffffffffffffffffffffff021916908373ffffffffffffffffffffffffffffffffffffffff160217905550600482015481600401556005820160009054906101000a900460ff168160050160006101000a81548160ff02191690831515021790555050505050565b61064e610b22565b73ffffffffffffffffffffffffffffffffffffffff1661066c61085b565b73ffffffffffffffffffffffffffffffffffffffff16146106c2576040517f08c379a00000000000000000000000000000000000000000000000000000000081526004016106b99061100d565b60405180910390fd5b60006106cc61085b565b90508073ffffffffffffffffffffffffffffffffffffffff166108fc479081150290604051600060405180830381858888f19350505050158015610714573d6000803e3d6000fd5b5050565b610720610b22565b73ffffffffffffffffffffffffffffffffffffffff1661073e61085b565b73ffffffffffffffffffffffffffffffffffffffff1614610794576040517f08c379a000000000000000000000000000000000000000000000000000000000815260040161078b9061100d565b60405180910390fd5b600073ffffffffffffffffffffffffffffffffffffffff166000809054906101000a900473ffffffffffffffffffffffffffffffffffffffff1673ffffffffffffffffffffffffffffffffffffffff167f8be0079c531659141344cd1fd0a4f28419497f9722a3daafe3b4186f6b6457e060405160405180910390a360008060006101000a81548173ffffffffffffffffffffffffffffffffffffffff021916908373ffffffffffffffffffffffffffffffffffffffff160217905550565b600047905090565b60008060009054906101000a900473ffffffffffffffffffffffffffffffffffffffff16905090565b61088c610b22565b73ffffffffffffffffffffffffffffffffffffffff166108aa61085b565b73ffffffffffffffffffffffffffffffffffffffff1614610900576040517f08c379a00000000000000000000000000000000000000000000000000000000081526004016108f79061100d565b60405180910390fd5b6001600760008473ffffffffffffffffffffffffffffffffffffffff1673ffffffffffffffffffffffffffffffffffffffff168152602001908152602001600020828154811061094c57fe5b906000526020600020906006020160050160006101000a81548160ff0219169083151502179055505050565b610980610b22565b73ffffffffffffffffffffffffffffffffffffffff1661099e61085b565b73ffffffffffffffffffffffffffffffffffffffff16146109f4576040517f08c379a00000000000000000000000000000000000000000000000000000000081526004016109eb9061100d565b60405180910390fd5b600073ffffffffffffffffffffffffffffffffffffffff168173ffffffffffffffffffffffffffffffffffffffff161415610a64576040517f08c379a0000000000000000000000000000000000000000000000000000000008152600401610a5b90610fed565b60405180910390fd5b8073ffffffffffffffffffffffffffffffffffffffff166000809054906101000a900473ffffffffffffffffffffffffffffffffffffffff1673ffffffffffffffffffffffffffffffffffffffff167f8be0079c531659141344cd1fd0a4f28419497f9722a3daafe3b4186f6b6457e060405160405180910390a3806000806101000a81548173ffffffffffffffffffffffffffffffffffffffff021916908373ffffffffffffffffffffffffffffffffffffffff16021790555050565b600033905090565b828054600181600116156101000203166002900490600052602060002090601f016020900481019282601f10610b6b57805160ff1916838001178555610b99565b82800160010185558215610b99579182015b82811115610b98578251825591602001919060010190610b7d565b5b509050610ba69190610c31565b5090565b828054600181600116156101000203166002900490600052602060002090601f016020900481019282601f10610be35780548555610c20565b82800160010185558215610c2057600052602060002091601f016020900482015b82811115610c1f578254825591600101919060010190610c04565b5b509050610c2d9190610c31565b5090565b610c5391905b80821115610c4f576000816000905550600101610c37565b5090565b90565b600081359050610c658161113a565b92915050565b60008083601f840112610c7d57600080fd5b8235905067ffffffffffffffff811115610c9657600080fd5b602083019150836001820283011115610cae57600080fd5b9250929050565b600081359050610cc481611151565b92915050565b600060208284031215610cdc57600080fd5b6000610cea84828501610c56565b91505092915050565b60008060408385031215610d0657600080fd5b6000610d1485828601610c56565b9250506020610d2585828601610cb5565b9150509250929050565b60008060208385031215610d4257600080fd5b600083013567ffffffffffffffff811115610d5c57600080fd5b610d6885828601610c6b565b92509250509250929050565b6000610d808383610f09565b905092915050565b610d91816110ae565b82525050565b610da0816110ae565b82525050565b6000610db182611058565b610dbb818561107b565b935083602082028501610dcd85611048565b8060005b85811015610e095784840389528151610dea8582610d74565b9450610df58361106e565b925060208a01995050600181019050610dd1565b50829750879550505050505092915050565b610e24816110c0565b82525050565b6000610e3582611063565b610e3f818561108c565b9350610e4f8185602086016110f6565b610e5881611129565b840191505092915050565b6000610e7060268361109d565b91507f4f776e61626c653a206e6577206f776e657220697320746865207a65726f206160008301527f64647265737300000000000000000000000000000000000000000000000000006020830152604082019050919050565b6000610ed660208361109d565b91507f4f776e61626c653a2063616c6c6572206973206e6f7420746865206f776e65726000830152602082019050919050565b600060c083016000830151610f216000860182610f92565b506020830151610f346020860182610f92565b5060408301518482036040860152610f4c8282610e2a565b9150506060830151610f616060860182610d88565b506080830151610f746080860182610f92565b5060a0830151610f8760a0860182610e1b565b508091505092915050565b610f9b816110ec565b82525050565b610faa816110ec565b82525050565b6000602082019050610fc56000830184610d97565b92915050565b60006020820190508181036000830152610fe58184610da6565b905092915050565b6000602082019050818103600083015261100681610e63565b9050919050565b6000602082019050818103600083015261102681610ec9565b9050919050565b60006020820190506110426000830184610fa1565b92915050565b6000819050602082019050919050565b600081519050919050565b600081519050919050565b6000602082019050919050565b600082825260208201905092915050565b600082825260208201905092915050565b600082825260208201905092915050565b60006110b9826110cc565b9050919050565b60008115159050919050565b600073ffffffffffffffffffffffffffffffffffffffff82169050919050565b6000819050919050565b60005b838110156111145780820151818401526020810190506110f9565b83811115611123576000848401525b50505050565b6000601f19601f8301169050919050565b611143816110ae565b811461114e57600080fd5b50565b61115a816110ec565b811461116557600080fd5b5056fea264697066735822122000b35b49c3107f6e36eb1fa9e0f38b80dc57c1c53fb8a5c9669c1608f4be0b4964736f6c63430006000033",
  "source": "// SPDX-License-Identifier: MIT\r\npragma solidity 0.6.0;\r\n\r\npragma experimental ABIEncoderV2; \r\n\r\nimport \"@openzeppelin/contracts/access/Ownable.sol\"; // The standard for secure blockchain applications\r\n\r\n/**\r\n * @title Purchase products.\r\n * @author Vincenzo Fraello(299647) & Lorenzo Di Palma(299636).\r\n * @notice You can use this contract to make purchase of different products.\r\n * @dev All function calls are currently implemented with Web3.js. \r\n **/\r\n\r\ncontract PurchaseProducts is Ownable {\r\n    \r\n    /**\r\n     * @dev This structure represents an order.\r\n     **/\r\n    \r\n    struct Purchase {\r\n        uint256 id;\r\n        uint256 purchaseDate;\r\n        string content;\r\n        address owner;\r\n        uint256 eth;\r\n        bool isShipped;\r\n    } Purchase purchase;\r\n    \r\n\r\n     /**\r\n     * @dev This mapping is used to create an array of purchases that correspond to the different users.\r\n     **/\r\n    \r\n    mapping (address => Purchase[]) private arrayPurchase;\r\n    \r\n\r\n     /**\r\n     * @dev This mapping is used to store the value of the last index of the arrayPurchase structure \r\n     *      that refers to the different users.\r\n     **/\r\n\r\n    mapping(address => uint256) private lastIndexArray;\r\n    \r\n\r\n     /**\r\n     * @dev This function is used to make purchase. \r\n     **/\r\n    \r\n    function makePurchase(string calldata _content) external payable {\r\n\r\n        purchase = Purchase(lastIndexArray[msg.sender]++, block.timestamp, _content, msg.sender, msg.value, false);\r\n\r\n        arrayPurchase[msg.sender].push(purchase);\r\n    }\r\n    \r\n       \r\n     /**\r\n     * @dev This function is used to get orders (used by clients and esmployees)\r\n     **/\r\n    \r\n    function getOrders(address _addr) public view returns (Purchase[] memory) {\r\n        \r\n        return  arrayPurchase[_addr];\r\n    }\r\n    \r\n\r\n     /**\r\n     * @dev This function is used to withdraw crypto currency from the contract wallet \r\n     *      only by the owner of the contract. \r\n     **/\r\n    \r\n    function withdraw() external onlyOwner {\r\n        \r\n        address payable _owner = address(uint160(owner()));\r\n        \r\n        _owner.transfer(address(this).balance);\r\n    }\r\n    \r\n\r\n     /**\r\n     * @dev This function is used to get the balacnce of the contract. \r\n     **/\r\n    \r\n    function contractBalance() external view returns(uint) {\r\n       \r\n        return address(this).balance;\r\n    }\r\n    \r\n    \r\n     /**\r\n     * @dev This function is used to ship an order. \r\n     **/\r\n    \r\n    function shipOrder(address _addr, uint256 _index) external onlyOwner {\r\n        \r\n        arrayPurchase[_addr][_index].isShipped = true;\r\n    }\r\n}\r\n",
  "sourcePath": "C:/Users/vince/Desktop/truffle/contracts/PurchaseProducts.sol",
  "compiler": {
    "name": "solc",
    "version": "0.6.0+commit.26b70077.Emscripten.clang"
  },
  "schemaVersion": "3.3.4",
  "updatedAt": "2021-03-18T07:30:04.495Z",
  "networkType": "ethereum",
  "devdoc": {
    "author": "Vincenzo Fraello(299647) & Lorenzo Di Palma(299636).",
    "details": "All function calls are currently implemented with Web3.js. *",
    "methods": {
      "contractBalance()": {
        "details": "This function is used to get the balacnce of the contract. *"
      },
      "getOrders(address)": {
        "details": "This function is used to get orders (used by clients and esmployees)*"
      },
      "makePurchase(string)": {
        "details": "This function is used to make purchase. *"
      },
      "owner()": {
        "details": "Returns the address of the current owner."
      },
      "renounceOwnership()": {
        "details": "Leaves the contract without owner. It will not be possible to call `onlyOwner` functions anymore. Can only be called by the current owner.     * NOTE: Renouncing ownership will leave the contract without an owner, thereby removing any functionality that is only available to the owner."
      },
      "shipOrder(address,uint256)": {
        "details": "This function is used to ship an order. *"
      },
      "transferOwnership(address)": {
        "details": "Transfers ownership of the contract to a new account (`newOwner`). Can only be called by the current owner."
      },
      "withdraw()": {
        "details": "This function is used to withdraw crypto currency from the contract wallet      only by the owner of the contract. *"
      }
    },
    "title": "Purchase products."
  },
  "userdoc": {
    "methods": {},
    "notice": "You can use this contract to make purchase of different products."
  }
}